:100000000C9446000C9465000C9465000C946500FB
:100010000C9465000C94D1030C9465000C9465005D
:100020000C9465000C9465000C9467000C946500BA
:100030000C9465000C9465000C9465000C946500AC
:100040000C94D50E0C9465000C9465000C9465001E
:100050000C9465000C9465000C9465000C9465008C
:100060000C9465000C9465000C9465000C9465007C
:100070000C9465000C9465000C9465000C9465006C
:100080000C9465000C9465000C94650011241FBE4F
:10009000CFEFD0E1DEBFCDBF12E0A0E0B1E0ECE4F5
:1000A000F0E200E00BBF02C007900D92A433B1074D
:1000B000D9F717E0A4E3B2E001C01D92A539B1075A
:1000C000E1F70E940B040C9424100C9400001F9282
:1000D0000F920FB60F920BB60F9211248F939F932E
:1000E000EF93FF938091340290913502019719F1BB
:1000F000809126019091270197FD23C080E188BB64
:1001000081E090E09093350280933402E0912601E3
:10011000F0912701EE0FFF1FE05FFE4F808184BD4D
:10012000FF91EF919F918F910F900BBE0F900FBE9B
:100130000F901F90189518BA109235021092340241
:10014000E5CF18BADDCF17B887E886B90895369A93
:10015000349BFECF24B145B1942F80E030E0282BB2
:10016000392BC901089581E090E090932501809397
:10017000240110923702109236029FEF9ABB8FE053
:100180008BBB94BB809364000895AF92BF92CF92D3
:10019000DF92EF92FF920F931F93DF93CF9300D0E4
:1001A000CDB7DEB76E010894C11CD11C94E0A92E16
:1001B000B12C8091BC039091BD0360E070E0A6017A
:1001C0000E94CD0980913602909137027501E81A9C
:1001D000F90A8091BC039091BD030E94AE09809101
:1001E000B8029091B90260E143E096010E949F0538
:1001F0008823E9F1E114F10409F06BC08091080152
:1002000085BB809100018093650080E060E040E064
:1002100023E030E00E942C088091090185BB809189
:1002200001018093650080E060E040E023E030E081
:100230000E942C0880910A0185BB80910201809365
:10024000650080E060E040E023E030E00E942C08A0
:1002500080910B0185BB809103018093650080E054
:1002600060E040E023E030E00E942C08A2CF00E0F4
:1002700010E01E141F04FCF415BAF801E050FF4F03
:100280008081809365000E94A70087569340C8F440
:1002900080E060E040E028EC30E00E942C080F5F36
:1002A0001F4F0430110509F484CF0894E108F108C8
:1002B0001E141F040CF3F801EC5FFE4F808185BB18
:1002C000DCCF80E060E040E023E030E00E942C08DA
:1002D000E6CF24E0E216F10409F06BCF80910C0127
:1002E00085BB809100018093650080E060E040E084
:1002F00023E030E00E942C0880910D0185BB8091A5
:1003000001018093650080E060E040E023E030E0A0
:100310000E942C0880910E0185BB80910201809380
:10032000650080E060E040E023E030E00E942C08BF
:1003300080910F018FCFCF92DF92EF92FF920F93B8
:100340001F93DF93CF9300D0CDB7DEB77E01089423
:10035000E11CF11CCC24CA94DC2C8091B802909151
:10036000B90264E043E820E030E087010E94140B0A
:100370008091BC039091BD0360E070E0A7010E94F2
:10038000CD098091360290913702181619064CF467
:1003900080913602909137020197909337028093B3
:1003A00036028091BC039091BD030E94AE098091FA
:1003B0003A0390913B0360E070E0A7010E94CD09F1
:1003C000109227011092260180E060E040E024E6D0
:1003D00030E00E942C08D0922701C0922601809123
:1003E0003A0390913B030E94AE09B7CFAF92BF9200
:1003F000CF92DF92EF92FF920F931F93DF93CF93F1
:1004000000D0CDB7DEB77E010894E11CF11C21E0DD
:10041000A22EB12CCC24CA94DC2C8091B8029091ED
:10042000B90261E043E820E030E087010E94140B4C
:100430008091BC039091BD0360E070E0A7010E9431
:10044000CD09809136029091370204974CF4809147
:1004500036029091370201969093370280933602CC
:100460008091BC039091BD030E94AE0980913A0334
:1004700090913B0360E070E0A7010E94CD09B0922B
:100480002701A092260180E060E040E024E630E011
:100490000E942C08D0922701C092260180913A0335
:1004A00090913B030E94AE09B8CFEF92FF920F9359
:1004B0001F93DF93CF9300D0CDB7DEB77E010894B2
:1004C000E11CF11C8091B8029091B90262E043E80E
:1004D00020E030E087010E94140B8BB386958BBB24
:1004E000F1CFEF92FF920F931F93DF93CF9300D042
:1004F000CDB7DEB77E010894E11CF11C8091B802F3
:100500009091B90268E043E820E030E087010E9462
:10051000140B0E94F90F8C010E94A700875693408C
:10052000B8F0C80165E070E00E94550FAC0197FD7E
:10053000E5CF20E030E08BB38F3F21F08BB3880F05
:100540008F5F8BBB2F5F3F4F42175307A4F7D6CF68
:10055000C80167E070E00E94550FAC0197FDCECF57
:1005600020E030E08BB38F3F21F08BB3880F8F5F9B
:100570008BBB2F5F3F4F42175307A4F7BFCFCF92DC
:10058000DF92EF92FF920F931F93DF93CF9300D0F0
:10059000CDB7DEB77E010894E11CF11CCC24CA94CF
:1005A000DC2C51C065E070E0809124019091250120
:1005B0000E94550F892B79F48BB3882319F48BB3E0
:1005C0008F3F49F08091B8029091B90261E041E01B
:1005D00097010E94800A8091BC039091BD0360E066
:1005E00070E0A7010E94CD090091360210913702F8
:1005F0008091BC039091BD030E94AE0980912401BB
:100600009091250180FD0FC08BB3882361F51016F2
:1006100011064CF58091B8029091B90264E041E076
:1006200097010E94800A04301105C4F510161106C6
:100630000CF084C080912401909125010196909343
:1006400025018093240180E060E041E020E030E07B
:100650000E942C080E94A7008756934008F0A2CF62
:100660006AE070E0A1CF8BB38F3F61F410161106E2
:100670004CF48091B8029091B90264E041E0970196
:100680000E94800A8091B8029091B90262E041E034
:1006900097010E94800A0430110544F28091B8024B
:1006A0009091B90260E141E097010E94800A02E066
:1006B00010E080913A0390913B0360E070E0A70165
:1006C0000E94CD09109327010093260180913A03DF
:1006D00090913B030E94AE0980E060E040E028EC8E
:1006E00030E00E942C080F5F1F4F0630110509F7FC
:1006F00080913A0390913B0360E070E0A7010E9473
:10070000CD09D0922701C092260180913A039091A1
:100710003B030E94AE0980E060E043E020E030E06F
:100720000E942C088091B8029091B9026FEF40E0CE
:1007300097010E94800A0E94B3007CCF8BB388236C
:1007400059F58091B8029091B90260E141E09701BA
:100750000E94800A06E010E080913A0390913B03EA
:1007600060E070E0A7010E94CD091093270100937B
:10077000260180913A0390913B030E94AE0980E0EC
:1007800060E040E028EC30E00E942C080F5F1F4F33
:100790000A30110509F7ACCF8BB38F3F09F04ACF70
:1007A000D0CF1F920F920FB60F920BB60F9211245B
:1007B0002F933F934F935F936F937F938F939F9369
:1007C000AF93BF93EF93FF93DF93CF9300D0CDB759
:1007D000DEB78091B8029091B90268E041E09E01D5
:1007E0002F5F3F4F0E94800A0F900F90CF91DF91B3
:1007F000FF91EF91BF91AF919F918F917F916F91F9
:100800005F914F913F912F910F900BBE0F900FBEB4
:100810000F901F901895DF93CF9300D0CDB7DEB720
:100820000E947F0DF89487E083BF81E487BF84E650
:1008300082BF0E94B30090E197BB83E085BD81E158
:1008400084BD8FEE82B982E08ABF99BF8FB780687E
:100850008FBF17B887E886B9789481E090E00E944E
:10086000190790933B0380933A0381E090E00E9444
:1008700019079093BD038093BC0381E090E00E9430
:10088000190790933F0480933E0480E090E00E941B
:10089000FE0F81E792E060E070E047EB52E020E07D
:1008A0000E945A0985E592E060E070E04FE355E070
:1008B00021E00E945A0986EF91E060E070E04DE38C
:1008C00054E022E00E945A098BE991E060E070E078
:1008D0004FEB54E023E00E945A098FEB92E060E076
:1008E00070E04BEB53E024E00E945A0985EC90E065
:1008F00060E070E049E353E026E00E945A0980E09E
:10090000BE016F5F7F4F0E9415069093B9028093DE
:10091000B8020E94FF0C80E090E00F900F90CF9102
:10092000DF910895FA0180839293129212921292AB
:100930001292129212921292129212921292129297
:100940001292129212921292129212921292129287
:1009500012921292129212921292629372931292C5
:1009600012921292129212921292129280E8829332
:100970003197CF0108950895089508950895089531
:10098000089508950895089580914105813009F0F2
:1009900008958091E2058F3FD9F38F5F8093E20540
:1009A000089580914105813009F00895F89480916F
:1009B00040058F3F19F08F5F80934005789408952C
:1009C0008CEF90E00895FF920F931F93CF93DF93E6
:1009D000EC018B01F42E3981E32FF0E0E05DFE4F56
:1009E0002081422F50E0FA01E85DFE4F7081DC016A
:1009F000A40FB51F16969C911697E92FF0E0E05DC5
:100A0000FE4F8081E82FF0E0E85DFE4F6081220F0D
:100A1000220F220F280F862F8095892316968C93FC
:100A2000882321F4872F809538233983E22FF0E043
:100A3000EE0FFF1FE958F84F0190F081E02D14866A
:100A4000138617821682118700878F2D80959585D2
:100A500089238587882359F48091DC05872B80932F
:100A6000DC05FA01E352FA4F8081682B6083822F04
:100A7000DF91CF911F910F91FF900895CF93DF9356
:100A8000EC01A091E305B091E40517969C938E9339
:100A9000169750968C915097482F50E051963C9164
:100AA0005197FA01E352FA4F832F80959081892361
:100AB00080838823A9F452962C91922F909580914F
:100AC000DC0589238093DC05FE01E40FF51F868198
:100AD000832B86838981822B8983DF91CF9108952F
:100AE00052962C91F1CFCF93DF93EC01A091E305C7
:100AF000B091E40550968C915097FE01E80FF11DDE
:100B000051968C915197809596818923868388236D
:100B100039F452969C9152979095898189238983C3
:100B20001D961C921D9717961C921E921697DF9188
:100B3000CF910895FC011182168217820895DC017D
:100B4000962FF90147FD2EC020E01082F894413025
:100B500079F1413050F0423009F438C04330A9F007
:100B6000789487E9808380E0089513966C911397B9
:100B7000862F80958923891709F44EC088E98083E0
:100B800013966C91862F7894089513966C91139711
:100B9000892F862349F588E9808313966C91862FE7
:100BA000789408954F7721E01082F894413089F6C7
:100BB00013966C911397862F80958923E9F488E921
:100BC000808313966C91862F7894089513966C9178
:100BD0001397892F86238917B1F088E980831396AC
:100BE0006C91862F789408952130C9F680958623DC
:100BF00013968C93682FD3CF213029F7862B139629
:100C00008C93682FE0CF213061F7892F8095862360
:100C100013968C93682FE5CF213009F0B3CF862F40
:100C2000892B13968C93682FADCF282FDB018091F1
:100C3000E2058823D9F4F894E0917407F0917507E0
:100C4000309779F081819281909375078093740732
:100C500085E0808323831282118278941C92CF01D5
:100C6000089578948AE98C93CF0108958DE88C9348
:100C7000E0E0F0E0F4CFFC01DB01F89483817894AC
:100C80001C920895EF92FF920F931F93CF93DF93DF
:100C90007C01FB01A091E305B091E4051D968C91C8
:100CA0001D9780621D968C931D971C961C930E9326
:100CB0001B9740872187B583A483E70189819A81A7
:100CC0009183808313821282F782E68289819A81DE
:100CD000009719F0EC017B836A83E701FA83E983CB
:100CE0005096EC915097F0E0E352FA4F51968C9168
:100CF00051978095908189238083882341F452966F
:100D00009C9190958091DC0589238093DC05DF918F
:100D1000CF911F910F91FF90EF90089587E495E098
:100D200090937507809374071092470510924905B8
:100D3000109248050895CF93DF93FC01A281B381FF
:100D4000C081D181109751F01196DC93CE932097FA
:100D500011F0BB83AA83DF91CF9108950680F781BC
:100D6000E02DD283C1832097B1F31B821A82DF91D9
:100D7000CF9108951F93CF93DF93EC01AC81BD8198
:100D80001C961C921E921B971A966C931A971D968E
:100D90008C911D978F7D1D968C931D978823E1F470
:100DA0008091DC0552969C915297892B8093DC05AB
:100DB0005096EC915097F0E0E352FA4F80815196B3
:100DC0009C91892B808311E0CE010E949B06812F8C
:100DD000DF91CF911F91089510E0CE010E949B06F4
:100DE000812FDF91CF911F9108959C018091E205A1
:100DF0008823D9F4F894E091DF05F091E00530976D
:100E000031F0848195819093E0058093DF0578949B
:100E1000309749F081E080831382128235832483E6
:100E2000118216821782CF010895E0E0F0E0CF0131
:100E300008959C018091E2058823D9F4F894E0910B
:100E4000DF05F091E005309731F084819581909332
:100E5000E0058093DF057894309749F083E0808344
:100E60003383228315821482118216821782CF0166
:100E70000895E0E0F0E0CF0108951F93CF93DF9352
:100E8000182FF894C091D605D091D705209709F472
:100E900056C08A819B819093D7058093D60578941C
:100EA000798368831E871D861C861B86E12FE69545
:100EB000E695E695E88BF0E0E85DFE4F80818A8B51
:100EC000E12FE770EF87F0E0E85DFE4F8081898BCE
:100ED0001F821E8219861886CE010E94C304CE018D
:100EE0000E94BB04F894E12FF0E0EE0FFF1FE958D9
:100EF000F84FD183C083E0914C05F0914D05FB8301
:100F0000EA831D821C82309711F0D583C483D0936D
:100F10004D05C0934C058091DC059A89892B8093FF
:100F2000DC05E889F0E0E352FA4F80819989892B4A
:100F30008083789480E0DF91CF911F910895789419
:100F400086E4DF91CF911F910895F8948091420536
:100F500090914305A0914405B09145050196A11DCE
:100F6000B11D8093420590934305A0934405B0932F
:100F7000450578940E94C204E8CFF8948091E20578
:100F8000882309F03FC0809140058823D9F5E0917E
:100F9000DC05F0E0E05DFE4F8081E82FF0E0E352F9
:100FA000FA4FE081F0E0E05DFE4F982F990F990F26
:100FB000990F8081980F9093460580914B05981763
:100FC00009F1E92FF0E0EE0FFF1FE958F84F80819B
:100FD00091819093DB058093DA058091CE05909105
:100FE000CF05A091D005B091D1050196A11DB11DED
:100FF0008093CE059093CF05A093D005B093D105F3
:101000000E943B0E789408959C01009721F1F8947A
:10101000A091E305B091E4055096EC915097F0E073
:10102000E352FA4F51968C91519780959081892384
:101030008083882349F452969C9152979095809191
:10104000DC0589238093DC051C963C932E931B972B
:1010500078940E94BD0708958F929F92AF92BF929D
:10106000CF92DF92EF92FF920F931F93CF93DF9374
:10107000882E162F942E8823C9F01C3300F58BE39D
:10108000891590F093E0283E3907D8F083E5DF9189
:10109000CF911F910F91FF90EF90DF90CF90BF9075
:1010A000AF909F908F90089582E5F1CF662329F746
:1010B000442329F72115310529F784E5E8CF81E597
:1010C000E6CFB90180E090E024E630E040E050E077
:1010D0000E94360F6C507E4F8F4F9F4F28EE33E0AB
:1010E00040E050E00E94680F59016A01612F70E0F2
:1010F00080E090E02CE330E040E050E00E94360FCA
:101100007B018C01E90CF11C011D111D682D70E0A3
:1011100080E090E020E13EE040E050E00E94360FA9
:10112000E60EF71E081F191FC801B70124E630E0BC
:1011300040E050E00E94360FA60EB71EC81ED91E12
:10114000760100271127E7018FEF9FEFA0E0B0E0C5
:10115000A822B922CA22DB22C5010E940408EF2876
:1011600051F080E090E80E94040880E090E80E943E
:1011700004082197B1F780E08ACFDF92EF92FF92C7
:101180000F931F9380917607882341F488EC90E0B9
:101190000E940408809176078823C1F36091D205EC
:1011A0007091D3058091D4059091D50524E630E067
:1011B00040E050E00E94680FC901DA017C018D0116
:1011C00044E6D42E10C0A80197010E94680F8D2D0F
:1011D000821B87FD44C08093D8050E94BE0484E62C
:1011E00090E00E940408F894809142059091430594
:1011F000A0914405B0914505809391079093920783
:10120000A0939307B09394076091420570914305B2
:101210008091440590914505109242051092430536
:1012200010924405109245057894E114F1040105EB
:10123000110549F61092D8056091D2057091D30539
:101240008091D4059091D50524E630E040E050E04F
:101250000E94680FC901DA017C018D01BECF109296
:10126000D805BBCF82E090E00E940408F894109269
:10127000420510924305109244051092450578945A
:1012800084E690E00E940408F894809142059091D1
:101290004305A0914405B09145058093D2059093F4
:1012A000D305A093D405B093D50581E0809376074C
:1012B00078940895AF92BF92CF92DF92EF92FF920F
:1012C0000F931F93CF93DF93FC01122FF894C22F3B
:1012D000D0E0CC0FDD1FC958D84F88819981892B68
:1012E00071F0789418E2812FDF91CF911F910F91C7
:1012F000FF90EF90DF90CF90BF90AF90089581E086
:1013000090E0998388837894CF0120E030E00E94B8
:101310009204BC01812F40E050E020E030E0EE2458
:10132000FF248701CC24DD24AA24BB240E943D078E
:10133000182F882371F4F8948091D9058F5F8093DA
:10134000D905789480914105813069F60E94BD07E6
:10135000CACFF894198218827894C5CFFC01F8940A
:101360008181882379F4828193812FEF8F3F9207C7
:1013700031F0019693838283789480E00895789485
:1013800082E30895CF0160E070E041E00E94E30451
:1013900078940E94BD0780E008950F931F93CF9328
:1013A000DF93EC018A018091E205882381F4F894AF
:1013B0008A819B81009799F001979B838A83789417
:1013C000FA011082DF91CF911F910F91089582E071
:1013D000FA018083DF91CF911F910F910895E091E1
:1013E000E305F091E40585858160858774876387CF
:1013F000CE010E943E0578940E94BD07F894E091CA
:10140000E305F091E405858580FD0AC01782168208
:101410007894F8011082DF91CF911F910F91089578
:10142000CE010E94730578948AE0F8018083CACFC8
:10143000FC01F8948181882339F484819581892B7A
:1014400061F0789484E10895CF0142E00E94E304C2
:1014500078940E94BD0780E0089575836483789432
:1014600080E00895EF92FF920F931F93CF93DF9345
:101470008C017A018091E2058823A1F5F894F801A6
:10148000C481D581209769F0158214827894FA017D
:101490001082CE01DF91CF911F910F91FF90EF90BD
:1014A0000895E091E305F091E405858582608587E4
:1014B00074876387C8010E943E0578940E94BD0727
:1014C000F894E091E305F091E405C085D18520977B
:1014D00079F0118610861586178216827894F701A6
:1014E0001082D7CF82E0FA018083C0E0D0E0D1CF74
:1014F000C8010E94730578948AE0F7018083C9CF00
:10150000CF92DF92EF92FF920F931F93DF93CF93CF
:101510000F92CDB7DEB78C017901F894442309F01E
:1015200071C06095FC01838186238383F801C180AB
:10153000D280C114D10409F475C0198210C0F6011B
:101540006085F8018381809586236817C9F0F601CC
:10155000808191819C0169012115310501F1F6011C
:101560008185813089F1813050F3823009F43BC0AC
:10157000833069F7F6016085F8018381682339F3C8
:10158000C6010E94BA06813011F7F1E0F983F60135
:10159000808191819C0169012115310501F77894C1
:1015A000F981F13009F43BC0F894F8018381789413
:1015B000F70110820F90CF91DF911F910F91FF9053
:1015C000EF90DF90CF900895F80163816095F60168
:1015D0008085682309F4BBCFC6010E94BA0681301A
:1015E00009F0B5CFD2CFF6016085F801838186235B
:1015F000681709F0ACCFC6010E94BA06813009F025
:10160000A6CFC3CF413031F0789489E9F9018083C6
:1016100080E0D0CFFC018381862B838387CF0E941B
:10162000BD07C2CF1982BBCF8F929F92AF92BF925C
:10163000DF92EF92FF920F931F93DF93CF93CDB77B
:10164000DEB72B970FB6F894DEBF0FBECDBF7C017F
:10165000562FD42EF90158018091E2058823C1F458
:1016600047FD3EC01B86F89491E0D91609F441C0AD
:10167000D91620F1A2E0DA1609F45CC0B3E0DB165B
:1016800009F448C0789487E9F501808380E004C0BC
:1016900082E0D8018C9380E02B960FB6F894DEBFE1
:1016A0000FBECDBFCF91DF911F910F91FF90EF90B3
:1016B000DF90BF90AF909F908F900895D7011396C1
:1016C0004C91842F80958523851709F071C0BB85C7
:1016D000B13009F486C0842F7894D5011C92DCCFF8
:1016E000BFE7DB2281E08B87F89491E0D91609F0FF
:1016F000BFCFD70113964C91642F6095652309F4F1
:1017000096C0BB85B13009F466C0842F7894D501AA
:101710001C92C2CFD70113964C91852F842309F4D4
:1017200079C0BB85B13009F450C0842F7894D501BD
:101730001C92B2CFD70113964C91852F8423851725
:1017400049F4BB85B13009F452C0842F7894D50197
:101750001C92A2CFC7014E010894811C911CB401B8
:10176000452F22E08F010E94420678940E94BD0717
:10177000F894E091E305F091E405858585FD0AC0C4
:10178000BB85B130D9F1F7014381842F7894F501FD
:10179000108282CFC4010E949B06E091E305F09184
:1017A000E405158678948AE0D5018C9380E074CFA7
:1017B000C7014E010894811C911CB401452F20E003
:1017C0008F010E9442067894D1CF80958423F7013F
:1017D0008383482FAACF862F842BF7018383482F3A
:1017E00094CF842F852BF7018383482F74CF852FC7
:1017F00080958423F7018383482FA7CF81E08D153F
:1018000018F1D70113964C9113978285482B1396A4
:101810004C93BBCFC7014E010894811C911CB401AD
:10182000452F23E08F010E94420678949FCFC70185
:101830004E010894811C911CB401452F21E08F01B9
:101840000E944206789492CF93E09D1520F4D70130
:1018500013964C919ACF82858095F7014381482356
:10186000438393CFDF92EF92FF920F931F93CF9317
:10187000DF938C017A018091E2058823D1F5F894F9
:10188000F80121813281DD242115310511F0DD249B
:10189000D394662339F4DD20D9F1789488E0F701F8
:1018A00080832AC0613061F0789487E0F7018083FB
:1018B00023C0CE0160E00E94BA06888199819C0114
:1018C000E90121153105A9F7F8011082809174070B
:1018D0009091750792838183109375070093740725
:1018E0007894F1E0DF1689F0F701108200E010E053
:1018F00003C08CE8FA018083C801DF91CF911F916A
:101900000F91FF90EF90DF9008950E94BD07ECCFFC
:10191000F8011082809174079091750792838183FA
:1019200010937507009374077894F701108200E014
:1019300010E0E2CF80914105813009F00895F894DC
:1019400080914005882359F0815080934005882379
:1019500021F48091E205882321F078940895789409
:10196000089578940E94BD0708950E94BF04809155
:101970004105813009F00895A0914C05B0914D05C5
:101980001E968C911E978C30B1F32091DC0541E0BE
:1019900050E01AC052968C915297282B5096EC9199
:1019A0005097F0E0E352FA4F808151969C91519705
:1019B000892B808312960D90BC91A02D78941E9651
:1019C0008C911E978C30C1F0F8941B968D919C9150
:1019D0001C97009779F301971C969C938E931B9705
:1019E000892B41F71D968C911D9783FFD3CF1C96B1
:1019F0005C934E931B97DECF2093DC050895809176
:101A0000410581110895E091DC05F0E0E05DFE4FB5
:101A1000A081EA2FF0E0E352FA4FE081F0E0E05DD0
:101A2000FE4FAA0FAA0FAA0F8081A80FA093460508
:101A3000A0934B05B0E0AA0FBB1FA958B84F8D91DA
:101A40009C919093DB058093DA059093E405809355
:101A5000E3050E94070E089580914105813009F049
:101A60000895F8948091E205882339F0815080939D
:101A7000E205882311F07894089580914005882329
:101A8000D1F7E091DC05F0E0E05DFE4F80818093CE
:101A9000E105E82FF0E0E352FA4FE081F0E0E05D8D
:101AA000FE4F982F990F990F990F8081980F90935F
:101AB000460580914B059817F1F2E92FF0E0EE0F03
:101AC000FF1FE958F84F808191819093DB05809347
:101AD000DA058091CE059091CF05A091D005B09107
:101AE000D1050196A11DB11D8093CE059093CF0520
:101AF000A093D005B093D1050E949E0EBCCF0E944A
:101B0000C0041092E205109240051092D90510927F
:101B100041051092CE051092CF051092D00510927B
:101B2000D10510924205109243051092440510927F
:101B300045051092DC051092DD051092DE0510922D
:101B40004B05109246051092DB051092DA051092B3
:101B5000E4051092E30510924D0510924C05E7E75D
:101B6000F7E01192119227E0E139F207D1F780E90D
:101B700096E0FC01719791838083439627E0843738
:101B80009207B9F710926407109263078DE796E009
:101B90009093D7058093D605109265068DE696E062
:101BA00090936A068093690610926D06089690934A
:101BB00072068093710640971092750610927A060D
:101BC000109279069093E0058093DF0587E495E015
:101BD00090937507809374071092470510924905FA
:101BE0001092480585EA97E060E070E044E656E030
:101BF0002CE00E945A098DEB98E060E070E04DEC1B
:101C000055E02BE00E945A090E94C10408950E94E9
:101C1000BD0400914105039500934105E091DA056B
:101C2000F091DB05C191CDBFD191DEBF0F910FBF08
:101C30000F910BBFFF91EF91DF91CF91BF91AF91CA
:101C40009F918F917F916F915F914F913F912F91D4
:101C50001F910F91FF90EF90DF90CF90BF90AF90CA
:101C60009F908F907F906F905F904F903F902F90BC
:101C70001F900F9008950F921F922F923F924F92B4
:101C80005F926F927F928F929F92AF92BF92CF920C
:101C9000DF92EF92FF920F931F932F933F934F93F7
:101CA0005F936F937F938F939F93AF93BF93CF93E4
:101CB000DF93EF93FF930BB70F930FB70F93E09161
:101CC000E305F091E405CDB7C193DEB7D1930E944F
:101CD000BD040091460500934B05E091DA05F091B3
:101CE000DB05E093E305F093E405C191CDBFD1910D
:101CF000DEBF0F910FBF0F910BBFFF91EF91DF91EF
:101D0000CF91BF91AF919F918F917F916F915F9193
:101D10004F913F912F911F910F91FF90EF90DF9086
:101D2000CF90BF90AF909F908F907F906F905F907B
:101D30004F903F902F901F900F9008950E94BD04E8
:101D40000091460500934B05E091DA05F091DB0523
:101D5000E093E305F093E405C191CDBFD191DEBFDF
:101D60000F910FBF0F910BBFFF91EF91DF91CF91BB
:101D7000BF91AF919F918F917F916F915F914F91A3
:101D80003F912F911F910F91FF90EF90DF90CF9097
:101D9000BF90AF909F908F907F906F905F904F908B
:101DA0003F902F901F900F9008950F921F922F92A7
:101DB0003F924F925F926F927F928F929F92AF92DB
:101DC000BF92CF92DF92EF92FF920F931F932F93C8
:101DD0003F934F935F936F937F938F939F93AF93B3
:101DE000BF93CF93DF93EF93FF930BB70F930FB78F
:101DF00000680F930091E20503950093E20501301E
:101E000041F4CDB7DEB7E091E305F091E405C1936D
:101E1000D19304E602BF78940E94B50C00000E94A2
:101E20002C0D0F910FBF0F910BBFFF91EF91DF9121
:101E3000CF91BF91AF919F918F917F916F915F9162
:101E40004F913F912F911F910F91FF90EF90DF9055
:101E5000CF90BF90AF909F908F907F906F905F904A
:101E60004F903F902F901F900F900895629FD00148
:101E7000739FF001829FE00DF11D649FE00DF11D45
:101E8000929FF00D839FF00D749FF00D659FF00DF4
:101E90009927729FB00DE11DF91F639FB00DE11DE1
:101EA000F91FBD01CF011124089597FB092E0726C4
:101EB0000AD077FD04D02ED006D000201AF47095F9
:101EC00061957F4F0895F6F7909581959F4F0895FE
:101ED000A1E21A2EAA1BBB1BFD010DC0AA1FBB1F2E
:101EE000EE1FFF1FA217B307E407F50720F0A21BA0
:101EF000B30BE40BF50B661F771F881F991F1A940D
:101F000069F760957095809590959B01AC01BD0136
:101F1000CF010895AA1BBB1B51E107C0AA1FBB1F1D
:101F2000A617B70710F0A61BB70B881F991F5A9565
:101F3000A9F780959095BC01CD010895AF92BF920D
:101F4000CF92DF92EF92FF920F931F93CF93DF9385
:101F5000EC01A880B980CA80DB80A114B104C1045F
:101F6000D10441F484E2A82E89EDB82E8BE5C82E69
:101F700087E0D82EC601B5012DE133EF41E050E0F6
:101F80000E94091027EA31E440E050E00E94360F39
:101F90007B018C01C601B5012DE133EF41E050E03A
:101FA0000E940910CA01B9012CEE34EF4FEF5FEF28
:101FB0000E94360F6E0D7F1D801F911F97FF04C07A
:101FC0006150704080409048688379838A839B8306
:101FD0009B013F77C901DF91CF911F910F91FF9036
:101FE000EF90DF90CF90BF90AF9008950E949E0F2A
:101FF000089580E392E00E949E0F0895A0E0B0E073
:102000008093300290933102A0933202B093330256
:10201000089597FB092E05260ED057FD04D058DFF2
:102020000AD0001C38F450954095309521953F4FCB
:102030004F4F5F4F0895F6F7909580957095619595
:0C2040007F4F8F4F9F4F0895F894FFCF03
:10204C00080402014F635C463E3E0637383F6D790B
:10205C0011006100110042006100890072006900EA
:10206C00610057000100FFFF0102040810204080AE
:10207C000000010002000100030001000200010049
:10208C000400010002000100030001000200010035
:10209C000500010002000100030001000200010024
:1020AC000400010002000100030001000200010015
:1020BC000600010002000100030001000200010003
:1020CC0004000100020001000300010002000100F5
:1020DC0005000100020001000300010002000100E4
:1020EC0004000100020001000300010002000100D5
:1020FC0007000100020001000300010002000100C2
:10210C0004000100020001000300010002000100B4
:10211C0005000100020001000300010002000100A3
:10212C000400010002000100030001000200010094
:10213C000600010002000100030001000200010082
:10214C000400010002000100030001000200010074
:10215C000500010002000100030001000200010063
:10216C000400010002000100030001000200010054
:04217C00010000005E
:00000001FF
